:020000040000FA
:040000008031132810
:100008007E1480318B1E09280A2811280B1D0D2803
:100018000E2811288131572180317E100900803146
:1000280015282000A001A101A201A3017E10200033
:1000380080311E288131252180314B30F00001307C
:10004800F100813166218031083020009E009F0137
:10005800C1309800960197010B178B1722000D14D9
:100068002000A001A101A601A7010A30F400003078
:10007800F5008131132180317308F7007208F6000A
:100088008031AB20803174082000A0077508A13D9D
:100098000130A6070030A73D2708803AFC008030D1
:1000A8007C02031D59280A302602031C5C285D289F
:1000B800392822000D1080316C208031013A031D4F
:1000C800662867285D2822000D145F2880311328D0
:1000D800F801F901F601F701813113218031720825
:1000E800F4007308F500F536F40C7408F807750881
:1000F800F93D0130F6070030F73D00307702023055
:1001080003197602031C89288A28702820002008F1
:10011800DA3EF400FD30213DF50075087902031D33
:1001280097287408780203189A289B289D2801307C
:10013800AA2878082007F4007908213DF500F5364B
:10014800F40C7408A0007508A10000300800F9013B
:10015800FA01740875040319B228B328E228FB01D0
:10016800FB0ABF280130F435F50D890BB72801309B
:10017800F8007808FB07F51FC228C328B628013005
:10018800F935FA0D890BC42875087702031DCE28A6
:1001980074087602031CD128D228D7287408F602DE
:1001A8007508F73B79140130F536F40C890BD8281B
:1001B8000130FB02031DE128E228C3287A08F50074
:1001C8007908F400080021001508C0391338950093
:1001D800F03020009500F030F2007208FD000B119D
:1001E8008B167030F0000130F100813166218031CA
:1001F800080022008C018D01FF3021008C00FE30A8
:100208008D00FE3023008D001F308C0024008D01EE
:100218008C012100951722009D019E0108002000F5
:10022800960197019E176430F0000030F10081318B
:100238003F21813120009E131708F3001608F200B1
:1002480008008031FD20813181315F218131813188
:100258006C2181318031E720813108002000240899
:1002680025040319382939293E2925088A00240834
:100278000A008131080071082000A3007008A2005C
:1002880022082304031D49294A294429080020007B
:100298002208230403195129522956290130A202A0
:1002A8000030A33B08000B117D0820009500813128
:1002B800322181310800583021009900980122002C
:1002C8009601080071082000A5007008A400080025
:0A02D800163021009700080008000E
:020000040001F9
:04000E00E43DFF1EB0
:00000001FF
