:020000040000FA
:040000008031132810
:100008007E1480318B1E09280A2811280B1D0D2803
:100018000E28112881316A2180317E100900803133
:1000280015282000A001A101A201A301A4017E10AE
:10003800200080316F28F801F901F601F7018131BC
:10004800262180317208F4007308F500F536F40CA7
:100058007408F8077508F93D0130F6070030F73DD8
:1000680000307702023003197602031C3C283D2831
:10007800232820002008DA3EF400FD30213DF50059
:1000880075087902031D4A287408780203184D2858
:100098004E285128A401A40A6E2820081A3EF4000C
:1000A800FE30213DF50079087502031D5D287808AA
:1000B80074020318602861286E28A40178082007B4
:1000C800F4007908213DF500F536F40C7408A00019
:1000D8007508A10008008131382180315E30F000B8
:1000E8000130F100813179218031083020009E00F3
:1000F8009F01C1309800960197010B178B172200BA
:100108000D142000A001A101A701A8010A30F400E4
:100118000030F5008131262180317308F70072081C
:10012800F6008031BE20803174082000A0077508D1
:10013800A13D0130A7070030A83D2808803AFC00FF
:1001480080307C02031DAA280A302702031CAD2830
:10015800AE288A2822000D1080311F20803120000F
:100168002403031DB828B928AE2822000D14B0288E
:1001780080311328F901FA01740875040319C52898
:10018800C628F528FB01FB0AD2280130F435F50D05
:10019800890BCA280130F8007808FB07F51FD52815
:1001A800D628C9280130F935FA0D890BD7287508E2
:1001B8007702031DE12874087602031CE428E52869
:1001C800EA287408F6027508F73B79140130F53609
:1001D800F40C890BEB280130FB02031DF428F528E9
:1001E800D6287A08F5007908F400080021001508D7
:1001F800C03913389500F03020009500F030F20037
:100208007208FD000B118B168330F0000130F100ED
:10021800813179218031080022008C018D01FF3065
:1002280021008C00FE308D00FE3023008D001F3031
:100238008C0024008D018C012100951722009D015E
:100248009E0108002000960197019E176430F00077
:100258000030F10081315221813120009E131708AE
:10026800F3001608F2000800813110218131813134
:100278007221813181317F2181318031FA208131B0
:10028800080020002508260403194B294C29512968
:1002980026088A0025080A00813108007108200014
:1002A800A3007008A20022082304031D5C295D290D
:1002B8005729080020002208230403196429652906
:1002C80069290130A2020030A33B08000B117D0808
:1002D80020009500813145218131080058302100E6
:1002E8009900980122009601080071082000A600D4
:1002F8007008A500080016302100970008000800C3
:020000040001F9
:04000E00E43DFF1EB0
:00000001FF
